{
    "_format": "hh-sol-artifact-1",
    "contractName": "MyEpicGame",
    "sourceName": "contracts/MyEpicGame.sol",
    "abi": [
        {
            "inputs": [
                {
                    "internalType": "string[]",
                    "name": "characterNames",
                    "type": "string[]"
                },
                {
                    "internalType": "string[]",
                    "name": "characterImageURIs",
                    "type": "string[]"
                },
                {
                    "internalType": "uint256[]",
                    "name": "characterHp",
                    "type": "uint256[]"
                },
                {
                    "internalType": "uint256[]",
                    "name": "characterAttackDmg",
                    "type": "uint256[]"
                },
                {
                    "internalType": "string",
                    "name": "bossName",
                    "type": "string"
                },
                {
                    "internalType": "string",
                    "name": "bossImageURI",
                    "type": "string"
                },
                {
                    "internalType": "uint256",
                    "name": "bossHp",
                    "type": "uint256"
                },
                {
                    "internalType": "uint256",
                    "name": "bossAttackDamage",
                    "type": "uint256"
                }
            ],
            "stateMutability": "nonpayable",
            "type": "constructor"
        },
        {
            "anonymous": false,
            "inputs": [
                {
                    "indexed": true,
                    "internalType": "address",
                    "name": "owner",
                    "type": "address"
                },
                {
                    "indexed": true,
                    "internalType": "address",
                    "name": "approved",
                    "type": "address"
                },
                {
                    "indexed": true,
                    "internalType": "uint256",
                    "name": "tokenId",
                    "type": "uint256"
                }
            ],
            "name": "Approval",
            "type": "event"
        },
        {
            "anonymous": false,
            "inputs": [
                {
                    "indexed": true,
                    "internalType": "address",
                    "name": "owner",
                    "type": "address"
                },
                {
                    "indexed": true,
                    "internalType": "address",
                    "name": "operator",
                    "type": "address"
                },
                {
                    "indexed": false,
                    "internalType": "bool",
                    "name": "approved",
                    "type": "bool"
                }
            ],
            "name": "ApprovalForAll",
            "type": "event"
        },
        {
            "anonymous": false,
            "inputs": [
                {
                    "indexed": false,
                    "internalType": "address",
                    "name": "sender",
                    "type": "address"
                },
                {
                    "indexed": false,
                    "internalType": "uint256",
                    "name": "newBossHp",
                    "type": "uint256"
                },
                {
                    "indexed": false,
                    "internalType": "uint256",
                    "name": "newPlayerHp",
                    "type": "uint256"
                }
            ],
            "name": "AttackComplete",
            "type": "event"
        },
        {
            "anonymous": false,
            "inputs": [
                {
                    "indexed": false,
                    "internalType": "address",
                    "name": "sender",
                    "type": "address"
                },
                {
                    "indexed": false,
                    "internalType": "uint256",
                    "name": "tokenId",
                    "type": "uint256"
                },
                {
                    "indexed": false,
                    "internalType": "uint256",
                    "name": "characterIndex",
                    "type": "uint256"
                }
            ],
            "name": "CharacterNFTMinted",
            "type": "event"
        },
        {
            "anonymous": false,
            "inputs": [
                {
                    "indexed": true,
                    "internalType": "address",
                    "name": "from",
                    "type": "address"
                },
                {
                    "indexed": true,
                    "internalType": "address",
                    "name": "to",
                    "type": "address"
                },
                {
                    "indexed": true,
                    "internalType": "uint256",
                    "name": "tokenId",
                    "type": "uint256"
                }
            ],
            "name": "Transfer",
            "type": "event"
        },
        {
            "inputs": [
                {
                    "internalType": "address",
                    "name": "to",
                    "type": "address"
                },
                {
                    "internalType": "uint256",
                    "name": "tokenId",
                    "type": "uint256"
                }
            ],
            "name": "approve",
            "outputs": [],
            "stateMutability": "nonpayable",
            "type": "function"
        },
        {
            "inputs": [],
            "name": "attackBoss",
            "outputs": [],
            "stateMutability": "nonpayable",
            "type": "function"
        },
        {
            "inputs": [
                {
                    "internalType": "address",
                    "name": "owner",
                    "type": "address"
                }
            ],
            "name": "balanceOf",
            "outputs": [
                {
                    "internalType": "uint256",
                    "name": "",
                    "type": "uint256"
                }
            ],
            "stateMutability": "view",
            "type": "function"
        },
        {
            "inputs": [],
            "name": "bigBoss",
            "outputs": [
                {
                    "internalType": "string",
                    "name": "name",
                    "type": "string"
                },
                {
                    "internalType": "string",
                    "name": "imageURI",
                    "type": "string"
                },
                {
                    "internalType": "uint256",
                    "name": "hp",
                    "type": "uint256"
                },
                {
                    "internalType": "uint256",
                    "name": "maxHp",
                    "type": "uint256"
                },
                {
                    "internalType": "uint256",
                    "name": "attackDamage",
                    "type": "uint256"
                }
            ],
            "stateMutability": "view",
            "type": "function"
        },
        {
            "inputs": [],
            "name": "checkIfUserHasNFT",
            "outputs": [
                {
                    "components": [
                        {
                            "internalType": "uint256",
                            "name": "characterIndex",
                            "type": "uint256"
                        },
                        {
                            "internalType": "string",
                            "name": "name",
                            "type": "string"
                        },
                        {
                            "internalType": "string",
                            "name": "imageURI",
                            "type": "string"
                        },
                        {
                            "internalType": "uint256",
                            "name": "hp",
                            "type": "uint256"
                        },
                        {
                            "internalType": "uint256",
                            "name": "maxHp",
                            "type": "uint256"
                        },
                        {
                            "internalType": "uint256",
                            "name": "attackDamage",
                            "type": "uint256"
                        }
                    ],
                    "internalType": "struct MyEpicGame.CharacterAttributes",
                    "name": "",
                    "type": "tuple"
                }
            ],
            "stateMutability": "view",
            "type": "function"
        },
        {
            "inputs": [],
            "name": "getAllDefaultCharacters",
            "outputs": [
                {
                    "components": [
                        {
                            "internalType": "uint256",
                            "name": "characterIndex",
                            "type": "uint256"
                        },
                        {
                            "internalType": "string",
                            "name": "name",
                            "type": "string"
                        },
                        {
                            "internalType": "string",
                            "name": "imageURI",
                            "type": "string"
                        },
                        {
                            "internalType": "uint256",
                            "name": "hp",
                            "type": "uint256"
                        },
                        {
                            "internalType": "uint256",
                            "name": "maxHp",
                            "type": "uint256"
                        },
                        {
                            "internalType": "uint256",
                            "name": "attackDamage",
                            "type": "uint256"
                        }
                    ],
                    "internalType": "struct MyEpicGame.CharacterAttributes[]",
                    "name": "",
                    "type": "tuple[]"
                }
            ],
            "stateMutability": "view",
            "type": "function"
        },
        {
            "inputs": [
                {
                    "internalType": "uint256",
                    "name": "tokenId",
                    "type": "uint256"
                }
            ],
            "name": "getApproved",
            "outputs": [
                {
                    "internalType": "address",
                    "name": "",
                    "type": "address"
                }
            ],
            "stateMutability": "view",
            "type": "function"
        },
        {
            "inputs": [
                {
                    "internalType": "address",
                    "name": "owner",
                    "type": "address"
                },
                {
                    "internalType": "address",
                    "name": "operator",
                    "type": "address"
                }
            ],
            "name": "isApprovedForAll",
            "outputs": [
                {
                    "internalType": "bool",
                    "name": "",
                    "type": "bool"
                }
            ],
            "stateMutability": "view",
            "type": "function"
        },
        {
            "inputs": [
                {
                    "internalType": "uint256",
                    "name": "_characterIndex",
                    "type": "uint256"
                }
            ],
            "name": "mintCharacterNFT",
            "outputs": [],
            "stateMutability": "nonpayable",
            "type": "function"
        },
        {
            "inputs": [],
            "name": "name",
            "outputs": [
                {
                    "internalType": "string",
                    "name": "",
                    "type": "string"
                }
            ],
            "stateMutability": "view",
            "type": "function"
        },
        {
            "inputs": [
                {
                    "internalType": "uint256",
                    "name": "",
                    "type": "uint256"
                }
            ],
            "name": "nftHolderAttributes",
            "outputs": [
                {
                    "internalType": "uint256",
                    "name": "characterIndex",
                    "type": "uint256"
                },
                {
                    "internalType": "string",
                    "name": "name",
                    "type": "string"
                },
                {
                    "internalType": "string",
                    "name": "imageURI",
                    "type": "string"
                },
                {
                    "internalType": "uint256",
                    "name": "hp",
                    "type": "uint256"
                },
                {
                    "internalType": "uint256",
                    "name": "maxHp",
                    "type": "uint256"
                },
                {
                    "internalType": "uint256",
                    "name": "attackDamage",
                    "type": "uint256"
                }
            ],
            "stateMutability": "view",
            "type": "function"
        },
        {
            "inputs": [
                {
                    "internalType": "address",
                    "name": "",
                    "type": "address"
                }
            ],
            "name": "nftHolders",
            "outputs": [
                {
                    "internalType": "uint256",
                    "name": "",
                    "type": "uint256"
                }
            ],
            "stateMutability": "view",
            "type": "function"
        },
        {
            "inputs": [
                {
                    "internalType": "uint256",
                    "name": "tokenId",
                    "type": "uint256"
                }
            ],
            "name": "ownerOf",
            "outputs": [
                {
                    "internalType": "address",
                    "name": "",
                    "type": "address"
                }
            ],
            "stateMutability": "view",
            "type": "function"
        },
        {
            "inputs": [
                {
                    "internalType": "address",
                    "name": "from",
                    "type": "address"
                },
                {
                    "internalType": "address",
                    "name": "to",
                    "type": "address"
                },
                {
                    "internalType": "uint256",
                    "name": "tokenId",
                    "type": "uint256"
                }
            ],
            "name": "safeTransferFrom",
            "outputs": [],
            "stateMutability": "nonpayable",
            "type": "function"
        },
        {
            "inputs": [
                {
                    "internalType": "address",
                    "name": "from",
                    "type": "address"
                },
                {
                    "internalType": "address",
                    "name": "to",
                    "type": "address"
                },
                {
                    "internalType": "uint256",
                    "name": "tokenId",
                    "type": "uint256"
                },
                {
                    "internalType": "bytes",
                    "name": "_data",
                    "type": "bytes"
                }
            ],
            "name": "safeTransferFrom",
            "outputs": [],
            "stateMutability": "nonpayable",
            "type": "function"
        },
        {
            "inputs": [
                {
                    "internalType": "address",
                    "name": "operator",
                    "type": "address"
                },
                {
                    "internalType": "bool",
                    "name": "approved",
                    "type": "bool"
                }
            ],
            "name": "setApprovalForAll",
            "outputs": [],
            "stateMutability": "nonpayable",
            "type": "function"
        },
        {
            "inputs": [
                {
                    "internalType": "bytes4",
                    "name": "interfaceId",
                    "type": "bytes4"
                }
            ],
            "name": "supportsInterface",
            "outputs": [
                {
                    "internalType": "bool",
                    "name": "",
                    "type": "bool"
                }
            ],
            "stateMutability": "view",
            "type": "function"
        },
        {
            "inputs": [],
            "name": "symbol",
            "outputs": [
                {
                    "internalType": "string",
                    "name": "",
                    "type": "string"
                }
            ],
            "stateMutability": "view",
            "type": "function"
        },
        {
            "inputs": [
                {
                    "internalType": "uint256",
                    "name": "_tokenId",
                    "type": "uint256"
                }
            ],
            "name": "tokenURI",
            "outputs": [
                {
                    "internalType": "string",
                    "name": "",
                    "type": "string"
                }
            ],
            "stateMutability": "view",
            "type": "function"
        },
        {
            "inputs": [
                {
                    "internalType": "address",
                    "name": "from",
                    "type": "address"
                },
                {
                    "internalType": "address",
                    "name": "to",
                    "type": "address"
                },
                {
                    "internalType": "uint256",
                    "name": "tokenId",
                    "type": "uint256"
                }
            ],
            "name": "transferFrom",
            "outputs": [],
            "stateMutability": "nonpayable",
            "type": "function"
        }
    ],
    "bytecode": "0x60806040523480156200001157600080fd5b506040516200566438038062005664833981810160405281019062000037919062000a85565b6040518060400160405280600881526020017f5370617274616e730000000000000000000000000000000000000000000000008152506040518060400160405280600481526020017f73706172000000000000000000000000000000000000000000000000000000008152508160009080519060200190620000bb929190620007ed565b508060019080519060200190620000d4929190620007ed565b5050506040518060a0016040528085815260200184815260200183815260200183815260200182815250600860008201518160000190805190602001906200011e929190620007ed565b5060208201518160010190805190602001906200013d929190620007ed565b50604082015181600201556060820151816003015560808201518160040155905050620002c06040518060600160405280602a81526020016200563a602a9139600860000180546200018f9062000e08565b80601f0160208091040260200160405190810160405280929190818152602001828054620001bd9062000e08565b80156200020e5780601f10620001e2576101008083540402835291602001916200020e565b820191906000526020600020905b815481529060010190602001808311620001f057829003601f168201915b5050505050600860020154600860010180546200022b9062000e08565b80601f0160208091040260200160405190810160405280929190818152602001828054620002599062000e08565b8015620002aa5780601f106200027e57610100808354040283529160200191620002aa565b820191906000526020600020905b8154815290600101906020018083116200028c57829003601f168201915b50505050506200070260201b62001a521760201c565b60005b8851811015620006dc5760076040518060c001604052808381526020018b84815181106200031a577f4e487b7100000000000000000000000000000000000000000000000000000000600052603260045260246000fd5b602002602001015181526020018a848151811062000361577f4e487b7100000000000000000000000000000000000000000000000000000000600052603260045260246000fd5b60200260200101518152602001898481518110620003a8577f4e487b7100000000000000000000000000000000000000000000000000000000600052603260045260246000fd5b60200260200101518152602001898481518110620003ef577f4e487b7100000000000000000000000000000000000000000000000000000000600052603260045260246000fd5b6020026020010151815260200188848151811062000436577f4e487b7100000000000000000000000000000000000000000000000000000000600052603260045260246000fd5b6020026020010151815250908060018154018082558091505060019003906000526020600020906006020160009091909190915060008201518160000155602082015181600101908051906020019062000492929190620007ed565b506040820151816002019080519060200190620004b1929190620007ed565b50606082015181600301556080820151816004015560a0820151816005015550506000600782815481106200050f577f4e487b7100000000000000000000000000000000000000000000000000000000600052603260045260246000fd5b90600052602060002090600602016040518060c001604052908160008201548152602001600182018054620005449062000e08565b80601f0160208091040260200160405190810160405280929190818152602001828054620005729062000e08565b8015620005c35780601f106200059757610100808354040283529160200191620005c3565b820191906000526020600020905b815481529060010190602001808311620005a557829003601f168201915b50505050508152602001600282018054620005de9062000e08565b80601f01602080910402602001604051908101604052809291908181526020018280546200060c9062000e08565b80156200065d5780601f1062000631576101008083540402835291602001916200065d565b820191906000526020600020905b8154815290600101906020018083116200063f57829003601f168201915b5050505050815260200160038201548152602001600482015481526020016005820154815250509050620006c460405180606001604052806025815260200162005615602591398260200151836060015184604001516200070260201b62001a521760201c565b50600181620006d4919062000d6b565b9050620002c3565b50620006f46006620007ae60201b62001af41760201c565b505050505050505062000f2c565b620007a8848484846040516024016200071f949392919062000c30565b6040516020818303038152906040527f8d142cdd000000000000000000000000000000000000000000000000000000007bffffffffffffffffffffffffffffffffffffffffffffffffffffffff19166020820180517bffffffffffffffffffffffffffffffffffffffffffffffffffffffff8381831617835250505050620007c460201b60201c565b50505050565b6001816000016000828254019250508190555050565b60008151905060006a636f6e736f6c652e6c6f679050602083016000808483855afa5050505050565b828054620007fb9062000e08565b90600052602060002090601f0160209004810192826200081f57600085556200086b565b82601f106200083a57805160ff19168380011785556200086b565b828001600101855582156200086b579182015b828111156200086a5782518255916020019190600101906200084d565b5b5090506200087a91906200087e565b5090565b5b80821115620008995760008160009055506001016200087f565b5090565b6000620008b4620008ae8462000cbb565b62000c92565b90508083825260208201905082856020860282011115620008d457600080fd5b60005b858110156200092357815167ffffffffffffffff811115620008f857600080fd5b80860162000907898262000a41565b85526020850194506020840193505050600181019050620008d7565b5050509392505050565b6000620009446200093e8462000cea565b62000c92565b905080838252602082019050828560208602820111156200096457600080fd5b60005b858110156200099857816200097d888262000a6e565b84526020840193506020830192505060018101905062000967565b5050509392505050565b6000620009b9620009b38462000d19565b62000c92565b905082815260208101848484011115620009d257600080fd5b620009df84828562000dd2565b509392505050565b600082601f830112620009f957600080fd5b815162000a0b8482602086016200089d565b91505092915050565b600082601f83011262000a2657600080fd5b815162000a388482602086016200092d565b91505092915050565b600082601f83011262000a5357600080fd5b815162000a65848260208601620009a2565b91505092915050565b60008151905062000a7f8162000f12565b92915050565b600080600080600080600080610100898b03121562000aa357600080fd5b600089015167ffffffffffffffff81111562000abe57600080fd5b62000acc8b828c01620009e7565b985050602089015167ffffffffffffffff81111562000aea57600080fd5b62000af88b828c01620009e7565b975050604089015167ffffffffffffffff81111562000b1657600080fd5b62000b248b828c0162000a14565b965050606089015167ffffffffffffffff81111562000b4257600080fd5b62000b508b828c0162000a14565b955050608089015167ffffffffffffffff81111562000b6e57600080fd5b62000b7c8b828c0162000a41565b94505060a089015167ffffffffffffffff81111562000b9a57600080fd5b62000ba88b828c0162000a41565b93505060c062000bbb8b828c0162000a6e565b92505060e062000bce8b828c0162000a6e565b9150509295985092959890939650565b600062000beb8262000d4f565b62000bf7818562000d5a565b935062000c0981856020860162000dd2565b62000c148162000f01565b840191505092915050565b62000c2a8162000dc8565b82525050565b6000608082019050818103600083015262000c4c818762000bde565b9050818103602083015262000c62818662000bde565b905062000c73604083018562000c1f565b818103606083015262000c87818462000bde565b905095945050505050565b600062000c9e62000cb1565b905062000cac828262000e3e565b919050565b6000604051905090565b600067ffffffffffffffff82111562000cd95762000cd862000ed2565b5b602082029050602081019050919050565b600067ffffffffffffffff82111562000d085762000d0762000ed2565b5b602082029050602081019050919050565b600067ffffffffffffffff82111562000d375762000d3662000ed2565b5b62000d428262000f01565b9050602081019050919050565b600081519050919050565b600082825260208201905092915050565b600062000d788262000dc8565b915062000d858362000dc8565b9250827fffffffffffffffffffffffffffffffffffffffffffffffffffffffffffffffff0382111562000dbd5762000dbc62000e74565b5b828201905092915050565b6000819050919050565b60005b8381101562000df257808201518184015260208101905062000dd5565b8381111562000e02576000848401525b50505050565b6000600282049050600182168062000e2157607f821691505b6020821081141562000e385762000e3762000ea3565b5b50919050565b62000e498262000f01565b810181811067ffffffffffffffff8211171562000e6b5762000e6a62000ed2565b5b80604052505050565b7f4e487b7100000000000000000000000000000000000000000000000000000000600052601160045260246000fd5b7f4e487b7100000000000000000000000000000000000000000000000000000000600052602260045260246000fd5b7f4e487b7100000000000000000000000000000000000000000000000000000000600052604160045260246000fd5b6000601f19601f8301169050919050565b62000f1d8162000dc8565b811462000f2957600080fd5b50565b6146d98062000f3c6000396000f3fe608060405234801561001057600080fd5b506004361061012c5760003560e01c806398da4c95116100ad578063c87b56dd11610071578063c87b56dd1461035e578063c8cf27f41461038e578063d4f24c5b146103ac578063e985e9c5146103b6578063f8b81ef7146103e65761012c565b806398da4c95146102b1578063a22cb465146102e6578063a9c3267914610302578063b88d4fde14610324578063b953084e146103405761012c565b806342842e0e116100f457806342842e0e146101e75780636352211e1461020357806370a08231146102335780637df124a11461026357806395d89b41146102935761012c565b806301ffc9a71461013157806306fdde0314610161578063081812fc1461017f578063095ea7b3146101af57806323b872dd146101cb575b600080fd5b61014b60048036038101906101469190612e96565b610402565b604051610158919061367e565b60405180910390f35b6101696104e4565b6040516101769190613699565b60405180910390f35b61019960048036038101906101949190612ee8565b610576565b6040516101a691906135be565b60405180910390f35b6101c960048036038101906101c49190612e5a565b6105fb565b005b6101e560048036038101906101e09190612d54565b610713565b005b61020160048036038101906101fc9190612d54565b610773565b005b61021d60048036038101906102189190612ee8565b610793565b60405161022a91906135be565b60405180910390f35b61024d60048036038101906102489190612cef565b610845565b60405161025a9190613a39565b60405180910390f35b61027d60048036038101906102789190612cef565b6108fd565b60405161028a9190613a39565b60405180910390f35b61029b610915565b6040516102a89190613699565b60405180910390f35b6102cb60048036038101906102c69190612ee8565b6109a7565b6040516102dd96959493929190613a54565b60405180910390f35b61030060048036038101906102fb9190612e1e565b610af3565b005b61030a610b09565b60405161031b959493929190613768565b60405180910390f35b61033e60048036038101906103399190612da3565b610c3d565b005b610348610c9f565b604051610355919061365c565b60405180910390f35b61037860048036038101906103739190612ee8565b610e4a565b6040516103859190613699565b60405180910390f35b610396611065565b6040516103a39190613a17565b60405180910390f35b6103b461123d565b005b6103d060048036038101906103cb9190612d18565b6115ca565b6040516103dd919061367e565b60405180910390f35b61040060048036038101906103fb9190612ee8565b61165e565b005b60007f80ac58cd000000000000000000000000000000000000000000000000000000007bffffffffffffffffffffffffffffffffffffffffffffffffffffffff1916827bffffffffffffffffffffffffffffffffffffffffffffffffffffffff191614806104cd57507f5b5e139f000000000000000000000000000000000000000000000000000000007bffffffffffffffffffffffffffffffffffffffffffffffffffffffff1916827bffffffffffffffffffffffffffffffffffffffffffffffffffffffff1916145b806104dd57506104dc82611b0a565b5b9050919050565b6060600080546104f390613d71565b80601f016020809104026020016040519081016040528092919081815260200182805461051f90613d71565b801561056c5780601f106105415761010080835404028352916020019161056c565b820191906000526020600020905b81548152906001019060200180831161054f57829003601f168201915b5050505050905090565b600061058182611b74565b6105c0576040517f08c379a00000000000000000000000000000000000000000000000000000000081526004016105b7906139b7565b60405180910390fd5b6004600083815260200190815260200160002060009054906101000a900473ffffffffffffffffffffffffffffffffffffffff169050919050565b600061060682610793565b90508073ffffffffffffffffffffffffffffffffffffffff168373ffffffffffffffffffffffffffffffffffffffff161415610677576040517f08c379a000000000000000000000000000000000000000000000000000000000815260040161066e906139d7565b60405180910390fd5b8073ffffffffffffffffffffffffffffffffffffffff16610696611be0565b73ffffffffffffffffffffffffffffffffffffffff1614806106c557506106c4816106bf611be0565b6115ca565b5b610704576040517f08c379a00000000000000000000000000000000000000000000000000000000081526004016106fb90613917565b60405180910390fd5b61070e8383611be8565b505050565b61072461071e611be0565b82611ca1565b610763576040517f08c379a000000000000000000000000000000000000000000000000000000000815260040161075a906139f7565b60405180910390fd5b61076e838383611d7f565b505050565b61078e83838360405180602001604052806000815250610c3d565b505050565b6000806002600084815260200190815260200160002060009054906101000a900473ffffffffffffffffffffffffffffffffffffffff169050600073ffffffffffffffffffffffffffffffffffffffff168173ffffffffffffffffffffffffffffffffffffffff16141561083c576040517f08c379a000000000000000000000000000000000000000000000000000000000815260040161083390613957565b60405180910390fd5b80915050919050565b60008073ffffffffffffffffffffffffffffffffffffffff168273ffffffffffffffffffffffffffffffffffffffff1614156108b6576040517f08c379a00000000000000000000000000000000000000000000000000000000081526004016108ad90613937565b60405180910390fd5b600360008373ffffffffffffffffffffffffffffffffffffffff1673ffffffffffffffffffffffffffffffffffffffff168152602001908152602001600020549050919050565b600e6020528060005260406000206000915090505481565b60606001805461092490613d71565b80601f016020809104026020016040519081016040528092919081815260200182805461095090613d71565b801561099d5780601f106109725761010080835404028352916020019161099d565b820191906000526020600020905b81548152906001019060200180831161098057829003601f168201915b5050505050905090565b600d6020528060005260406000206000915090508060000154908060010180546109d090613d71565b80601f01602080910402602001604051908101604052809291908181526020018280546109fc90613d71565b8015610a495780601f10610a1e57610100808354040283529160200191610a49565b820191906000526020600020905b815481529060010190602001808311610a2c57829003601f168201915b505050505090806002018054610a5e90613d71565b80601f0160208091040260200160405190810160405280929190818152602001828054610a8a90613d71565b8015610ad75780601f10610aac57610100808354040283529160200191610ad7565b820191906000526020600020905b815481529060010190602001808311610aba57829003601f168201915b5050505050908060030154908060040154908060050154905086565b610b05610afe611be0565b8383611fe6565b5050565b6008806000018054610b1a90613d71565b80601f0160208091040260200160405190810160405280929190818152602001828054610b4690613d71565b8015610b935780601f10610b6857610100808354040283529160200191610b93565b820191906000526020600020905b815481529060010190602001808311610b7657829003601f168201915b505050505090806001018054610ba890613d71565b80601f0160208091040260200160405190810160405280929190818152602001828054610bd490613d71565b8015610c215780601f10610bf657610100808354040283529160200191610c21565b820191906000526020600020905b815481529060010190602001808311610c0457829003601f168201915b5050505050908060020154908060030154908060040154905085565b610c4e610c48611be0565b83611ca1565b610c8d576040517f08c379a0000000000000000000000000000000000000000000000000000000008152600401610c84906139f7565b60405180910390fd5b610c9984848484612153565b50505050565b60606007805480602002602001604051908101604052809291908181526020016000905b82821015610e4157838290600052602060002090600602016040518060c001604052908160008201548152602001600182018054610d0090613d71565b80601f0160208091040260200160405190810160405280929190818152602001828054610d2c90613d71565b8015610d795780601f10610d4e57610100808354040283529160200191610d79565b820191906000526020600020905b815481529060010190602001808311610d5c57829003601f168201915b50505050508152602001600282018054610d9290613d71565b80601f0160208091040260200160405190810160405280929190818152602001828054610dbe90613d71565b8015610e0b5780601f10610de057610100808354040283529160200191610e0b565b820191906000526020600020905b815481529060010190602001808311610dee57829003601f168201915b50505050508152602001600382015481526020016004820154815260200160058201548152505081526020019060010190610cc3565b50505050905090565b60606000600d60008481526020019081526020016000206040518060c001604052908160008201548152602001600182018054610e8690613d71565b80601f0160208091040260200160405190810160405280929190818152602001828054610eb290613d71565b8015610eff5780601f10610ed457610100808354040283529160200191610eff565b820191906000526020600020905b815481529060010190602001808311610ee257829003601f168201915b50505050508152602001600282018054610f1890613d71565b80601f0160208091040260200160405190810160405280929190818152602001828054610f4490613d71565b8015610f915780601f10610f6657610100808354040283529160200191610f91565b820191906000526020600020905b815481529060010190602001808311610f7457829003601f168201915b50505050508152602001600382015481526020016004820154815260200160058201548152505090506000610fc982606001516121af565b90506000610fda83608001516121af565b90506000610feb8460a001516121af565b905060006110318560200151611000896121af565b876040015187878760405160200161101d969594939291906134f7565b60405160208183030381529060405261235c565b9050600081604051602001611046919061359c565b6040516020818303038152906040529050809650505050505050919050565b61106d612b45565b6000600e60003373ffffffffffffffffffffffffffffffffffffffff1673ffffffffffffffffffffffffffffffffffffffff168152602001908152602001600020549050600081111561122c57600d60008281526020019081526020016000206040518060c0016040529081600082015481526020016001820180546110f290613d71565b80601f016020809104026020016040519081016040528092919081815260200182805461111e90613d71565b801561116b5780601f106111405761010080835404028352916020019161116b565b820191906000526020600020905b81548152906001019060200180831161114e57829003601f168201915b5050505050815260200160028201805461118490613d71565b80601f01602080910402602001604051908101604052809291908181526020018280546111b090613d71565b80156111fd5780601f106111d2576101008083540402835291602001916111fd565b820191906000526020600020905b8154815290600101906020018083116111e057829003601f168201915b50505050508152602001600382015481526020016004820154815260200160058201548152505091505061123a565b611234612b45565b80925050505b90565b6000600e60003373ffffffffffffffffffffffffffffffffffffffff1673ffffffffffffffffffffffffffffffffffffffff1681526020019081526020016000205490506000600d600083815260200190815260200160002090506113506040518060600160405280603c8152602001614668603c91398260010180546112c390613d71565b80601f01602080910402602001604051908101604052809291908181526020018280546112ef90613d71565b801561133c5780601f106113115761010080835404028352916020019161133c565b820191906000526020600020905b81548152906001019060200180831161131f57829003601f168201915b50505050508360030154846005015461251a565b6114286040518060400160405280601b81526020017f426f73732025732068617320257320485020616e6420257320414400000000008152506008600001805461139990613d71565b80601f01602080910402602001604051908101604052809291908181526020018280546113c590613d71565b80156114125780601f106113e757610100808354040283529160200191611412565b820191906000526020600020905b8154815290600101906020018083116113f557829003601f168201915b505050505060086002015460086004015461251a565b600081600301541161146f576040517f08c379a000000000000000000000000000000000000000000000000000000000815260040161146690613977565b60405180910390fd5b6000600860020154116114b7576040517f08c379a00000000000000000000000000000000000000000000000000000000081526004016114ae90613877565b60405180910390fd5b806005015460086002015410156114d85760006008600201819055506114f7565b80600501546008600201546114ed9190613c87565b6008600201819055505b600860040154816003015410156115175760008160030181905550611535565b600860040154816003015461152c9190613c87565b81600301819055505b61155c6040518060600160405280602581526020016145ad602591396008600201546125bc565b6115826040518060600160405280602881526020016146126028913982600301546125bc565b7f32bd565ee3f2cb5ddd742bbecd6048d3e9abe90b3827a40c2b72d232e71e3c9d3360086002015483600301546040516115be93929190613625565b60405180910390a15050565b6000600560008473ffffffffffffffffffffffffffffffffffffffff1673ffffffffffffffffffffffffffffffffffffffff16815260200190815260200160002060008373ffffffffffffffffffffffffffffffffffffffff1673ffffffffffffffffffffffffffffffffffffffff16815260200190815260200160002060009054906101000a900460ff16905092915050565b600061166a6006612658565b90506116763382612666565b6040518060c00160405280838152602001600784815481106116c1577f4e487b7100000000000000000000000000000000000000000000000000000000600052603260045260246000fd5b906000526020600020906006020160010180546116dd90613d71565b80601f016020809104026020016040519081016040528092919081815260200182805461170990613d71565b80156117565780601f1061172b57610100808354040283529160200191611756565b820191906000526020600020905b81548152906001019060200180831161173957829003601f168201915b505050505081526020016007848154811061179a577f4e487b7100000000000000000000000000000000000000000000000000000000600052603260045260246000fd5b906000526020600020906006020160020180546117b690613d71565b80601f01602080910402602001604051908101604052809291908181526020018280546117e290613d71565b801561182f5780601f106118045761010080835404028352916020019161182f565b820191906000526020600020905b81548152906001019060200180831161181257829003601f168201915b5050505050815260200160078481548110611873577f4e487b7100000000000000000000000000000000000000000000000000000000600052603260045260246000fd5b9060005260206000209060060201600301548152602001600784815481106118c4577f4e487b7100000000000000000000000000000000000000000000000000000000600052603260045260246000fd5b906000526020600020906006020160040154815260200160078481548110611915577f4e487b7100000000000000000000000000000000000000000000000000000000600052603260045260246000fd5b906000526020600020906006020160050154815250600d6000838152602001908152602001600020600082015181600001556020820151816001019080519060200190611963929190612b7b565b506040820151816002019080519060200190611980929190612b7b565b50606082015181600301556080820151816004015560a082015181600501559050506119c56040518060600160405280602e815260200161463a602e91398284612684565b80600e60003373ffffffffffffffffffffffffffffffffffffffff1673ffffffffffffffffffffffffffffffffffffffff16815260200190815260200160002081905550611a136006611af4565b7f4bc303fd457a97b4691b9af582ce71868a3d258638c8d4f8c60988a0f0bfb8cd338284604051611a4693929190613625565b60405180910390a15050565b611aee84848484604051602401611a6c94939291906136bb565b6040516020818303038152906040527f8d142cdd000000000000000000000000000000000000000000000000000000007bffffffffffffffffffffffffffffffffffffffffffffffffffffffff19166020820180517bffffffffffffffffffffffffffffffffffffffffffffffffffffffff8381831617835250505050612723565b50505050565b6001816000016000828254019250508190555050565b60007f01ffc9a7000000000000000000000000000000000000000000000000000000007bffffffffffffffffffffffffffffffffffffffffffffffffffffffff1916827bffffffffffffffffffffffffffffffffffffffffffffffffffffffff1916149050919050565b60008073ffffffffffffffffffffffffffffffffffffffff166002600084815260200190815260200160002060009054906101000a900473ffffffffffffffffffffffffffffffffffffffff1673ffffffffffffffffffffffffffffffffffffffff1614159050919050565b600033905090565b816004600083815260200190815260200160002060006101000a81548173ffffffffffffffffffffffffffffffffffffffff021916908373ffffffffffffffffffffffffffffffffffffffff160217905550808273ffffffffffffffffffffffffffffffffffffffff16611c5b83610793565b73ffffffffffffffffffffffffffffffffffffffff167f8c5be1e5ebec7d5bd14f71427d1e84f3dd0314c0f7b2291e5b200ac8c7c3b92560405160405180910390a45050565b6000611cac82611b74565b611ceb576040517f08c379a0000000000000000000000000000000000000000000000000000000008152600401611ce2906138f7565b60405180910390fd5b6000611cf683610793565b90508073ffffffffffffffffffffffffffffffffffffffff168473ffffffffffffffffffffffffffffffffffffffff161480611d385750611d3781856115ca565b5b80611d7657508373ffffffffffffffffffffffffffffffffffffffff16611d5e84610576565b73ffffffffffffffffffffffffffffffffffffffff16145b91505092915050565b8273ffffffffffffffffffffffffffffffffffffffff16611d9f82610793565b73ffffffffffffffffffffffffffffffffffffffff1614611df5576040517f08c379a0000000000000000000000000000000000000000000000000000000008152600401611dec90613857565b60405180910390fd5b600073ffffffffffffffffffffffffffffffffffffffff168273ffffffffffffffffffffffffffffffffffffffff161415611e65576040517f08c379a0000000000000000000000000000000000000000000000000000000008152600401611e5c906138b7565b60405180910390fd5b611e7083838361274c565b611e7b600082611be8565b6001600360008573ffffffffffffffffffffffffffffffffffffffff1673ffffffffffffffffffffffffffffffffffffffff1681526020019081526020016000206000828254611ecb9190613c87565b925050819055506001600360008473ffffffffffffffffffffffffffffffffffffffff1673ffffffffffffffffffffffffffffffffffffffff1681526020019081526020016000206000828254611f229190613ba6565b92505081905550816002600083815260200190815260200160002060006101000a81548173ffffffffffffffffffffffffffffffffffffffff021916908373ffffffffffffffffffffffffffffffffffffffff160217905550808273ffffffffffffffffffffffffffffffffffffffff168473ffffffffffffffffffffffffffffffffffffffff167fddf252ad1be2c89b69c2b068fc378daa952ba7f163c4a11628f55a4df523b3ef60405160405180910390a4611fe1838383612751565b505050565b8173ffffffffffffffffffffffffffffffffffffffff168373ffffffffffffffffffffffffffffffffffffffff161415612055576040517f08c379a000000000000000000000000000000000000000000000000000000000815260040161204c906138d7565b60405180910390fd5b80600560008573ffffffffffffffffffffffffffffffffffffffff1673ffffffffffffffffffffffffffffffffffffffff16815260200190815260200160002060008473ffffffffffffffffffffffffffffffffffffffff1673ffffffffffffffffffffffffffffffffffffffff16815260200190815260200160002060006101000a81548160ff0219169083151502179055508173ffffffffffffffffffffffffffffffffffffffff168373ffffffffffffffffffffffffffffffffffffffff167f17307eab39ab6107e8899845ad3d59bd9653f200f220920489ca2b5937696c3183604051612146919061367e565b60405180910390a3505050565b61215e848484611d7f565b61216a84848484612756565b6121a9576040517f08c379a00000000000000000000000000000000000000000000000000000000081526004016121a090613837565b60405180910390fd5b50505050565b606060008214156121f7576040518060400160405280600181526020017f30000000000000000000000000000000000000000000000000000000000000008152509050612357565b600082905060005b6000821461222957808061221290613dd4565b915050600a826122229190613bfc565b91506121ff565b60008167ffffffffffffffff81111561226b577f4e487b7100000000000000000000000000000000000000000000000000000000600052604160045260246000fd5b6040519080825280601f01601f19166020018201604052801561229d5781602001600182028036833780820191505090505b5090505b60008514612350576001826122b69190613c87565b9150600a856122c59190613e1d565b60306122d19190613ba6565b60f81b81838151811061230d577f4e487b7100000000000000000000000000000000000000000000000000000000600052603260045260246000fd5b60200101907effffffffffffffffffffffffffffffffffffffffffffffffffffffffffffff1916908160001a905350600a856123499190613bfc565b94506122a1565b8093505050505b919050565b606060008251905060008114156123855760405180602001604052806000815250915050612515565b600060036002836123969190613ba6565b6123a09190613bfc565b60046123ac9190613c2d565b905060006020826123bd9190613ba6565b67ffffffffffffffff8111156123fc577f4e487b7100000000000000000000000000000000000000000000000000000000600052604160045260246000fd5b6040519080825280601f01601f19166020018201604052801561242e5781602001600182028036833780820191505090505b50905060006040518060600160405280604081526020016145d2604091399050600181016020830160005b868110156124d25760038101905062ffffff818a015116603f8160121c168401518060081b905060ff603f83600c1c1686015116810190508060081b905060ff603f8360061c1686015116810190508060081b905060ff603f831686015116810190508060e01b90508084526004840193505050612459565b5060038606600181146124ec57600281146124fc57612507565b613d3d60f01b6002830352612507565b603d60f81b60018303525b508484525050819450505050505b919050565b6125b6848484846040516024016125349493929190613715565b6040516020818303038152906040527fd5cf17d0000000000000000000000000000000000000000000000000000000007bffffffffffffffffffffffffffffffffffffffffffffffffffffffff19166020820180517bffffffffffffffffffffffffffffffffffffffffffffffffffffffff8381831617835250505050612723565b50505050565b61265482826040516024016125d29291906137c9565b6040516020818303038152906040527f9710a9d0000000000000000000000000000000000000000000000000000000007bffffffffffffffffffffffffffffffffffffffffffffffffffffffff19166020820180517bffffffffffffffffffffffffffffffffffffffffffffffffffffffff8381831617835250505050612723565b5050565b600081600001549050919050565b6126808282604051806020016040528060008152506128ed565b5050565b61271e83838360405160240161269c939291906137f9565b6040516020818303038152906040527f969cdd03000000000000000000000000000000000000000000000000000000007bffffffffffffffffffffffffffffffffffffffffffffffffffffffff19166020820180517bffffffffffffffffffffffffffffffffffffffffffffffffffffffff8381831617835250505050612723565b505050565b60008151905060006a636f6e736f6c652e6c6f679050602083016000808483855afa5050505050565b505050565b505050565b60006127778473ffffffffffffffffffffffffffffffffffffffff16612948565b156128e0578373ffffffffffffffffffffffffffffffffffffffff1663150b7a026127a0611be0565b8786866040518563ffffffff1660e01b81526004016127c294939291906135d9565b602060405180830381600087803b1580156127dc57600080fd5b505af192505050801561280d57506040513d601f19601f8201168201806040525081019061280a9190612ebf565b60015b612890573d806000811461283d576040519150601f19603f3d011682016040523d82523d6000602084013e612842565b606091505b50600081511415612888576040517f08c379a000000000000000000000000000000000000000000000000000000000815260040161287f90613837565b60405180910390fd5b805181602001fd5b63150b7a0260e01b7bffffffffffffffffffffffffffffffffffffffffffffffffffffffff1916817bffffffffffffffffffffffffffffffffffffffffffffffffffffffff1916149150506128e5565b600190505b949350505050565b6128f7838361296b565b6129046000848484612756565b612943576040517f08c379a000000000000000000000000000000000000000000000000000000000815260040161293a90613837565b60405180910390fd5b505050565b6000808273ffffffffffffffffffffffffffffffffffffffff163b119050919050565b600073ffffffffffffffffffffffffffffffffffffffff168273ffffffffffffffffffffffffffffffffffffffff1614156129db576040517f08c379a00000000000000000000000000000000000000000000000000000000081526004016129d290613997565b60405180910390fd5b6129e481611b74565b15612a24576040517f08c379a0000000000000000000000000000000000000000000000000000000008152600401612a1b90613897565b60405180910390fd5b612a306000838361274c565b6001600360008473ffffffffffffffffffffffffffffffffffffffff1673ffffffffffffffffffffffffffffffffffffffff1681526020019081526020016000206000828254612a809190613ba6565b92505081905550816002600083815260200190815260200160002060006101000a81548173ffffffffffffffffffffffffffffffffffffffff021916908373ffffffffffffffffffffffffffffffffffffffff160217905550808273ffffffffffffffffffffffffffffffffffffffff16600073ffffffffffffffffffffffffffffffffffffffff167fddf252ad1be2c89b69c2b068fc378daa952ba7f163c4a11628f55a4df523b3ef60405160405180910390a4612b4160008383612751565b5050565b6040518060c001604052806000815260200160608152602001606081526020016000815260200160008152602001600081525090565b828054612b8790613d71565b90600052602060002090601f016020900481019282612ba95760008555612bf0565b82601f10612bc257805160ff1916838001178555612bf0565b82800160010185558215612bf0579182015b82811115612bef578251825591602001919060010190612bd4565b5b509050612bfd9190612c01565b5090565b5b80821115612c1a576000816000905550600101612c02565b5090565b6000612c31612c2c84613ae8565b613ac3565b905082815260208101848484011115612c4957600080fd5b612c54848285613d2f565b509392505050565b600081359050612c6b81614550565b92915050565b600081359050612c8081614567565b92915050565b600081359050612c958161457e565b92915050565b600081519050612caa8161457e565b92915050565b600082601f830112612cc157600080fd5b8135612cd1848260208601612c1e565b91505092915050565b600081359050612ce981614595565b92915050565b600060208284031215612d0157600080fd5b6000612d0f84828501612c5c565b91505092915050565b60008060408385031215612d2b57600080fd5b6000612d3985828601612c5c565b9250506020612d4a85828601612c5c565b9150509250929050565b600080600060608486031215612d6957600080fd5b6000612d7786828701612c5c565b9350506020612d8886828701612c5c565b9250506040612d9986828701612cda565b9150509250925092565b60008060008060808587031215612db957600080fd5b6000612dc787828801612c5c565b9450506020612dd887828801612c5c565b9350506040612de987828801612cda565b925050606085013567ffffffffffffffff811115612e0657600080fd5b612e1287828801612cb0565b91505092959194509250565b60008060408385031215612e3157600080fd5b6000612e3f85828601612c5c565b9250506020612e5085828601612c71565b9150509250929050565b60008060408385031215612e6d57600080fd5b6000612e7b85828601612c5c565b9250506020612e8c85828601612cda565b9150509250929050565b600060208284031215612ea857600080fd5b6000612eb684828501612c86565b91505092915050565b600060208284031215612ed157600080fd5b6000612edf84828501612c9b565b91505092915050565b600060208284031215612efa57600080fd5b6000612f0884828501612cda565b91505092915050565b6000612f1d83836133b9565b905092915050565b612f2e81613cbb565b82525050565b6000612f3f82613b29565b612f498185613b57565b935083602082028501612f5b85613b19565b8060005b85811015612f975784840389528151612f788582612f11565b9450612f8383613b4a565b925060208a01995050600181019050612f5f565b50829750879550505050505092915050565b612fb281613ccd565b82525050565b6000612fc382613b34565b612fcd8185613b68565b9350612fdd818560208601613d3e565b612fe681613f0a565b840191505092915050565b6000612ffc82613b3f565b6130068185613b79565b9350613016818560208601613d3e565b61301f81613f0a565b840191505092915050565b600061303582613b3f565b61303f8185613b8a565b935061304f818560208601613d3e565b61305881613f0a565b840191505092915050565b600061306e82613b3f565b6130788185613b9b565b9350613088818560208601613d3e565b80840191505092915050565b60006130a1600b83613b9b565b91506130ac82613f1b565b600b82019050919050565b60006130c4603283613b8a565b91506130cf82613f44565b604082019050919050565b60006130e7602583613b8a565b91506130f282613f93565b604082019050919050565b600061310a602883613b8a565b915061311582613fe2565b604082019050919050565b600061312d601c83613b8a565b915061313882614031565b602082019050919050565b6000613150600e83613b9b565b915061315b8261405a565b600e82019050919050565b6000613173602483613b8a565b915061317e82614083565b604082019050919050565b6000613196601983613b8a565b91506131a1826140d2565b602082019050919050565b60006131b9602c83613b8a565b91506131c4826140fb565b604082019050919050565b60006131dc603883613b8a565b91506131e78261414a565b604082019050919050565b60006131ff602a83613b8a565b915061320a82614199565b604082019050919050565b6000613222602983613b8a565b915061322d826141e8565b604082019050919050565b6000613245606283613b9b565b915061325082614237565b606282019050919050565b6000613268602d83613b8a565b9150613273826142d2565b604082019050919050565b600061328b600483613b9b565b915061329682614321565b600482019050919050565b60006132ae602083613b8a565b91506132b98261434a565b602082019050919050565b60006132d1602c83613b8a565b91506132dc82614373565b604082019050919050565b60006132f4600a83613b9b565b91506132ff826143c2565b600a82019050919050565b6000613317602183613b8a565b9150613322826143eb565b604082019050919050565b600061333a601d83613b9b565b91506133458261443a565b601d82019050919050565b600061335d603183613b8a565b915061336882614463565b604082019050919050565b6000613380603d83613b9b565b915061338b826144b2565b603d82019050919050565b60006133a3602d83613b9b565b91506133ae82614501565b602d82019050919050565b600060c0830160008301516133d160008601826134d9565b50602083015184820360208601526133e98282612ff1565b915050604083015184820360408601526134038282612ff1565b915050606083015161341860608601826134d9565b50608083015161342b60808601826134d9565b5060a083015161343e60a08601826134d9565b508091505092915050565b600060c08301600083015161346160008601826134d9565b50602083015184820360208601526134798282612ff1565b915050604083015184820360408601526134938282612ff1565b91505060608301516134a860608601826134d9565b5060808301516134bb60808601826134d9565b5060a08301516134ce60a08601826134d9565b508091505092915050565b6134e281613d25565b82525050565b6134f181613d25565b82525050565b6000613502826132e7565b915061350e8289613063565b915061351982613094565b91506135258288613063565b915061353082613238565b915061353c8287613063565b915061354782613373565b91506135538286613063565b915061355e82613143565b915061356a8285613063565b915061357582613396565b91506135818284613063565b915061358c8261327e565b9150819050979650505050505050565b60006135a78261332d565b91506135b38284613063565b915081905092915050565b60006020820190506135d36000830184612f25565b92915050565b60006080820190506135ee6000830187612f25565b6135fb6020830186612f25565b61360860408301856134e8565b818103606083015261361a8184612fb8565b905095945050505050565b600060608201905061363a6000830186612f25565b61364760208301856134e8565b61365460408301846134e8565b949350505050565b600060208201905081810360008301526136768184612f34565b905092915050565b60006020820190506136936000830184612fa9565b92915050565b600060208201905081810360008301526136b3818461302a565b905092915050565b600060808201905081810360008301526136d5818761302a565b905081810360208301526136e9818661302a565b90506136f860408301856134e8565b818103606083015261370a818461302a565b905095945050505050565b6000608082019050818103600083015261372f818761302a565b90508181036020830152613743818661302a565b905061375260408301856134e8565b61375f60608301846134e8565b95945050505050565b600060a0820190508181036000830152613782818861302a565b90508181036020830152613796818761302a565b90506137a560408301866134e8565b6137b260608301856134e8565b6137bf60808301846134e8565b9695505050505050565b600060408201905081810360008301526137e3818561302a565b90506137f260208301846134e8565b9392505050565b60006060820190508181036000830152613813818661302a565b905061382260208301856134e8565b61382f60408301846134e8565b949350505050565b60006020820190508181036000830152613850816130b7565b9050919050565b60006020820190508181036000830152613870816130da565b9050919050565b60006020820190508181036000830152613890816130fd565b9050919050565b600060208201905081810360008301526138b081613120565b9050919050565b600060208201905081810360008301526138d081613166565b9050919050565b600060208201905081810360008301526138f081613189565b9050919050565b60006020820190508181036000830152613910816131ac565b9050919050565b60006020820190508181036000830152613930816131cf565b9050919050565b60006020820190508181036000830152613950816131f2565b9050919050565b6000602082019050818103600083015261397081613215565b9050919050565b600060208201905081810360008301526139908161325b565b9050919050565b600060208201905081810360008301526139b0816132a1565b9050919050565b600060208201905081810360008301526139d0816132c4565b9050919050565b600060208201905081810360008301526139f08161330a565b9050919050565b60006020820190508181036000830152613a1081613350565b9050919050565b60006020820190508181036000830152613a318184613449565b905092915050565b6000602082019050613a4e60008301846134e8565b92915050565b600060c082019050613a6960008301896134e8565b8181036020830152613a7b818861302a565b90508181036040830152613a8f818761302a565b9050613a9e60608301866134e8565b613aab60808301856134e8565b613ab860a08301846134e8565b979650505050505050565b6000613acd613ade565b9050613ad98282613da3565b919050565b6000604051905090565b600067ffffffffffffffff821115613b0357613b02613edb565b5b613b0c82613f0a565b9050602081019050919050565b6000819050602082019050919050565b600081519050919050565b600081519050919050565b600081519050919050565b6000602082019050919050565b600082825260208201905092915050565b600082825260208201905092915050565b600082825260208201905092915050565b600082825260208201905092915050565b600081905092915050565b6000613bb182613d25565b9150613bbc83613d25565b9250827fffffffffffffffffffffffffffffffffffffffffffffffffffffffffffffffff03821115613bf157613bf0613e4e565b5b828201905092915050565b6000613c0782613d25565b9150613c1283613d25565b925082613c2257613c21613e7d565b5b828204905092915050565b6000613c3882613d25565b9150613c4383613d25565b9250817fffffffffffffffffffffffffffffffffffffffffffffffffffffffffffffffff0483118215151615613c7c57613c7b613e4e565b5b828202905092915050565b6000613c9282613d25565b9150613c9d83613d25565b925082821015613cb057613caf613e4e565b5b828203905092915050565b6000613cc682613d05565b9050919050565b60008115159050919050565b60007fffffffff0000000000000000000000000000000000000000000000000000000082169050919050565b600073ffffffffffffffffffffffffffffffffffffffff82169050919050565b6000819050919050565b82818337600083830152505050565b60005b83811015613d5c578082015181840152602081019050613d41565b83811115613d6b576000848401525b50505050565b60006002820490506001821680613d8957607f821691505b60208210811415613d9d57613d9c613eac565b5b50919050565b613dac82613f0a565b810181811067ffffffffffffffff82111715613dcb57613dca613edb565b5b80604052505050565b6000613ddf82613d25565b91507fffffffffffffffffffffffffffffffffffffffffffffffffffffffffffffffff821415613e1257613e11613e4e565b5b600182019050919050565b6000613e2882613d25565b9150613e3383613d25565b925082613e4357613e42613e7d565b5b828206905092915050565b7f4e487b7100000000000000000000000000000000000000000000000000000000600052601160045260246000fd5b7f4e487b7100000000000000000000000000000000000000000000000000000000600052601260045260246000fd5b7f4e487b7100000000000000000000000000000000000000000000000000000000600052602260045260246000fd5b7f4e487b7100000000000000000000000000000000000000000000000000000000600052604160045260246000fd5b6000601f19601f8301169050919050565b7f202d2d204e465420233a20000000000000000000000000000000000000000000600082015250565b7f4552433732313a207472616e7366657220746f206e6f6e20455243373231526560008201527f63656976657220696d706c656d656e7465720000000000000000000000000000602082015250565b7f4552433732313a207472616e736665722066726f6d20696e636f72726563742060008201527f6f776e6572000000000000000000000000000000000000000000000000000000602082015250565b7f4572726f723a20626f7373206d757374206861766520485020746f206174746160008201527f636b20626f73732e000000000000000000000000000000000000000000000000602082015250565b7f4552433732313a20746f6b656e20616c7265616479206d696e74656400000000600082015250565b7f2c20226d61785f76616c7565223a000000000000000000000000000000000000600082015250565b7f4552433732313a207472616e7366657220746f20746865207a65726f2061646460008201527f7265737300000000000000000000000000000000000000000000000000000000602082015250565b7f4552433732313a20617070726f766520746f2063616c6c657200000000000000600082015250565b7f4552433732313a206f70657261746f7220717565727920666f72206e6f6e657860008201527f697374656e7420746f6b656e0000000000000000000000000000000000000000602082015250565b7f4552433732313a20617070726f76652063616c6c6572206973206e6f74206f7760008201527f6e6572206e6f7220617070726f76656420666f7220616c6c0000000000000000602082015250565b7f4552433732313a2062616c616e636520717565727920666f7220746865207a6560008201527f726f206164647265737300000000000000000000000000000000000000000000602082015250565b7f4552433732313a206f776e657220717565727920666f72206e6f6e657869737460008201527f656e7420746f6b656e0000000000000000000000000000000000000000000000602082015250565b7f222c20226465736372697074696f6e223a20225468697320697320616e204e4660008201527f542074686174206c6574732070656f706c6520706c617920696e20746865206760208201527f616d65204d657461766572736520536c6179657221222c2022696d616765223a60408201527f2022000000000000000000000000000000000000000000000000000000000000606082015250565b7f4572726f723a20636861726163746572206d757374206861766520485020746f60008201527f2061747461636b20626f73732e00000000000000000000000000000000000000602082015250565b7f7d205d7d00000000000000000000000000000000000000000000000000000000600082015250565b7f4552433732313a206d696e7420746f20746865207a65726f2061646472657373600082015250565b7f4552433732313a20617070726f76656420717565727920666f72206e6f6e657860008201527f697374656e7420746f6b656e0000000000000000000000000000000000000000602082015250565b7f7b226e616d65223a202200000000000000000000000000000000000000000000600082015250565b7f4552433732313a20617070726f76616c20746f2063757272656e74206f776e6560008201527f7200000000000000000000000000000000000000000000000000000000000000602082015250565b7f646174613a6170706c69636174696f6e2f6a736f6e3b6261736536342c000000600082015250565b7f4552433732313a207472616e736665722063616c6c6572206973206e6f74206f60008201527f776e6572206e6f7220617070726f766564000000000000000000000000000000602082015250565b7f222c202261747472696275746573223a205b207b202274726169745f7479706560008201527f223a20224865616c746820506f696e7473222c202276616c7565223a20000000602082015250565b7f7d2c207b202274726169745f74797065223a202241747461636b2044616d616760008201527f65222c202276616c7565223a2000000000000000000000000000000000000000602082015250565b61455981613cbb565b811461456457600080fd5b50565b61457081613ccd565b811461457b57600080fd5b50565b61458781613cd9565b811461459257600080fd5b50565b61459e81613d25565b81146145a957600080fd5b5056fe506c617965722061747461636b656420626f73732e204e657720626f73732068703a2025734142434445464748494a4b4c4d4e4f505152535455565758595a6162636465666768696a6b6c6d6e6f707172737475767778797a303132333435363738392b2f426f73732061747461636b656420706c617965722e204e657720706c617965722068703a2025730a4d696e746564204e465420772f20746f6b656e496420257320616e6420636861726163746572496e6465782025730a506c6179657220772f206368617261637465722025732061626f757420746f2061747461636b2e2048617320257320485020616e64202573204144a2646970667358221220d581bf83932157ab6feba5cc96da21e9e77a17d34ae96077195c2306962e308464736f6c63430008040033446f6e6520696e697469616c697a696e6720257320772f2048502025732c20696d67202573446f6e6520696e697469616c697a696e6720626f737320257320772f2048502025732c20696d67202573",
    "linkReferences": {},
    "deployedLinkReferences": {}
}